{
  "contractName": "token",
  "abi": [
    {
      "inputs": [
        {
          "internalType": "address",
          "name": "_private",
          "type": "address"
        },
        {
          "internalType": "address",
          "name": "_public",
          "type": "address"
        },
        {
          "internalType": "address",
          "name": "_investor1",
          "type": "address"
        },
        {
          "internalType": "address",
          "name": "_investor2",
          "type": "address"
        },
        {
          "internalType": "address",
          "name": "_friend",
          "type": "address"
        }
      ],
      "stateMutability": "nonpayable",
      "type": "constructor"
    },
    {
      "inputs": [
        {
          "internalType": "address",
          "name": "",
          "type": "address"
        },
        {
          "internalType": "address",
          "name": "",
          "type": "address"
        }
      ],
      "name": "allow",
      "outputs": [
        {
          "internalType": "uint256",
          "name": "",
          "type": "uint256"
        }
      ],
      "stateMutability": "view",
      "type": "function",
      "constant": true
    },
    {
      "inputs": [
        {
          "internalType": "address",
          "name": "",
          "type": "address"
        }
      ],
      "name": "balanceOf",
      "outputs": [
        {
          "internalType": "uint256",
          "name": "",
          "type": "uint256"
        }
      ],
      "stateMutability": "view",
      "type": "function",
      "constant": true
    },
    {
      "inputs": [],
      "name": "cost",
      "outputs": [
        {
          "internalType": "uint256",
          "name": "",
          "type": "uint256"
        }
      ],
      "stateMutability": "view",
      "type": "function",
      "constant": true
    },
    {
      "inputs": [],
      "name": "currentPhase",
      "outputs": [
        {
          "internalType": "enum token.Phase",
          "name": "",
          "type": "uint8"
        }
      ],
      "stateMutability": "view",
      "type": "function",
      "constant": true
    },
    {
      "inputs": [],
      "name": "digits",
      "outputs": [
        {
          "internalType": "uint256",
          "name": "",
          "type": "uint256"
        }
      ],
      "stateMutability": "view",
      "type": "function",
      "constant": true
    },
    {
      "inputs": [],
      "name": "name",
      "outputs": [
        {
          "internalType": "string",
          "name": "",
          "type": "string"
        }
      ],
      "stateMutability": "view",
      "type": "function",
      "constant": true
    },
    {
      "inputs": [],
      "name": "owner",
      "outputs": [
        {
          "internalType": "address",
          "name": "",
          "type": "address"
        }
      ],
      "stateMutability": "view",
      "type": "function",
      "constant": true
    },
    {
      "inputs": [],
      "name": "phaseLimit",
      "outputs": [
        {
          "internalType": "uint256",
          "name": "",
          "type": "uint256"
        }
      ],
      "stateMutability": "view",
      "type": "function",
      "constant": true
    },
    {
      "inputs": [],
      "name": "privateProvider",
      "outputs": [
        {
          "internalType": "address",
          "name": "",
          "type": "address"
        }
      ],
      "stateMutability": "view",
      "type": "function",
      "constant": true
    },
    {
      "inputs": [
        {
          "internalType": "address",
          "name": "",
          "type": "address"
        }
      ],
      "name": "privateTokens",
      "outputs": [
        {
          "internalType": "uint256",
          "name": "",
          "type": "uint256"
        }
      ],
      "stateMutability": "view",
      "type": "function",
      "constant": true
    },
    {
      "inputs": [],
      "name": "publicProvider",
      "outputs": [
        {
          "internalType": "address",
          "name": "",
          "type": "address"
        }
      ],
      "stateMutability": "view",
      "type": "function",
      "constant": true
    },
    {
      "inputs": [
        {
          "internalType": "address",
          "name": "",
          "type": "address"
        }
      ],
      "name": "publicTokens",
      "outputs": [
        {
          "internalType": "uint256",
          "name": "",
          "type": "uint256"
        }
      ],
      "stateMutability": "view",
      "type": "function",
      "constant": true
    },
    {
      "inputs": [
        {
          "internalType": "address",
          "name": "",
          "type": "address"
        }
      ],
      "name": "requests",
      "outputs": [
        {
          "internalType": "string",
          "name": "",
          "type": "string"
        }
      ],
      "stateMutability": "view",
      "type": "function",
      "constant": true
    },
    {
      "inputs": [
        {
          "internalType": "uint256",
          "name": "",
          "type": "uint256"
        }
      ],
      "name": "requestsAddresses",
      "outputs": [
        {
          "internalType": "address",
          "name": "",
          "type": "address"
        }
      ],
      "stateMutability": "view",
      "type": "function",
      "constant": true
    },
    {
      "inputs": [
        {
          "internalType": "address",
          "name": "",
          "type": "address"
        }
      ],
      "name": "roles",
      "outputs": [
        {
          "internalType": "enum token.Role",
          "name": "",
          "type": "uint8"
        }
      ],
      "stateMutability": "view",
      "type": "function",
      "constant": true
    },
    {
      "inputs": [
        {
          "internalType": "address",
          "name": "",
          "type": "address"
        }
      ],
      "name": "seedTokens",
      "outputs": [
        {
          "internalType": "uint256",
          "name": "",
          "type": "uint256"
        }
      ],
      "stateMutability": "view",
      "type": "function",
      "constant": true
    },
    {
      "inputs": [],
      "name": "symbol",
      "outputs": [
        {
          "internalType": "string",
          "name": "",
          "type": "string"
        }
      ],
      "stateMutability": "view",
      "type": "function",
      "constant": true
    },
    {
      "inputs": [],
      "name": "timeDiff",
      "outputs": [
        {
          "internalType": "uint8",
          "name": "",
          "type": "uint8"
        }
      ],
      "stateMutability": "view",
      "type": "function",
      "constant": true
    },
    {
      "inputs": [],
      "name": "timeStart",
      "outputs": [
        {
          "internalType": "uint256",
          "name": "",
          "type": "uint256"
        }
      ],
      "stateMutability": "view",
      "type": "function",
      "constant": true
    },
    {
      "inputs": [],
      "name": "totalSuply",
      "outputs": [
        {
          "internalType": "uint256",
          "name": "",
          "type": "uint256"
        }
      ],
      "stateMutability": "view",
      "type": "function",
      "constant": true
    },
    {
      "inputs": [
        {
          "internalType": "uint256",
          "name": "",
          "type": "uint256"
        }
      ],
      "name": "users",
      "outputs": [
        {
          "internalType": "address",
          "name": "",
          "type": "address"
        }
      ],
      "stateMutability": "view",
      "type": "function",
      "constant": true
    },
    {
      "inputs": [
        {
          "internalType": "address",
          "name": "",
          "type": "address"
        }
      ],
      "name": "whitelist",
      "outputs": [
        {
          "internalType": "bool",
          "name": "",
          "type": "bool"
        }
      ],
      "stateMutability": "view",
      "type": "function",
      "constant": true
    },
    {
      "inputs": [
        {
          "internalType": "address",
          "name": "to",
          "type": "address"
        },
        {
          "internalType": "uint256",
          "name": "amount",
          "type": "uint256"
        }
      ],
      "name": "transfer",
      "outputs": [],
      "stateMutability": "nonpayable",
      "type": "function"
    },
    {
      "inputs": [
        {
          "internalType": "address",
          "name": "from",
          "type": "address"
        },
        {
          "internalType": "address",
          "name": "to",
          "type": "address"
        },
        {
          "internalType": "uint256",
          "name": "amount",
          "type": "uint256"
        }
      ],
      "name": "transferFrom",
      "outputs": [],
      "stateMutability": "nonpayable",
      "type": "function"
    },
    {
      "inputs": [
        {
          "internalType": "string",
          "name": "text",
          "type": "string"
        }
      ],
      "name": "createRequest",
      "outputs": [],
      "stateMutability": "nonpayable",
      "type": "function"
    },
    {
      "inputs": [
        {
          "internalType": "address",
          "name": "addr",
          "type": "address"
        },
        {
          "internalType": "bool",
          "name": "isAccept",
          "type": "bool"
        }
      ],
      "name": "approveRequest",
      "outputs": [],
      "stateMutability": "nonpayable",
      "type": "function"
    },
    {
      "inputs": [
        {
          "internalType": "uint256",
          "name": "amount",
          "type": "uint256"
        }
      ],
      "name": "buy",
      "outputs": [],
      "stateMutability": "payable",
      "type": "function",
      "payable": true
    },
    {
      "inputs": [
        {
          "internalType": "address",
          "name": "to",
          "type": "address"
        },
        {
          "internalType": "uint256",
          "name": "amount",
          "type": "uint256"
        }
      ],
      "name": "setAllow",
      "outputs": [],
      "stateMutability": "nonpayable",
      "type": "function"
    },
    {
      "inputs": [
        {
          "internalType": "uint256",
          "name": "newCost",
          "type": "uint256"
        }
      ],
      "name": "setCost",
      "outputs": [],
      "stateMutability": "nonpayable",
      "type": "function"
    },
    {
      "inputs": [],
      "name": "setPrivatePhase",
      "outputs": [],
      "stateMutability": "nonpayable",
      "type": "function"
    },
    {
      "inputs": [],
      "name": "setPublicPhase",
      "outputs": [],
      "stateMutability": "nonpayable",
      "type": "function"
    },
    {
      "inputs": [],
      "name": "getTime",
      "outputs": [
        {
          "internalType": "uint256",
          "name": "",
          "type": "uint256"
        }
      ],
      "stateMutability": "view",
      "type": "function",
      "constant": true
    },
    {
      "inputs": [
        {
          "internalType": "uint8",
          "name": "count",
          "type": "uint8"
        }
      ],
      "name": "timeTravel",
      "outputs": [],
      "stateMutability": "nonpayable",
      "type": "function"
    }
  ],
  "bytecode": "0x6080604052426009556000600a60006101000a81548160ff021916908360ff1602179055506000600a60016101000a81548160ff021916908360028111156200004d576200004c6200076f565b5b02179055506040518060400160405280600d81526020017f43727970746f4d6f6e7374657200000000000000000000000000000000000000815250600b908162000098919062000a18565b506040518060400160405280600481526020017f434d4f4e00000000000000000000000000000000000000000000000000000000815250600c9081620000df919062000a18565b5062989680600d55600c600e556602aa1efb94e000600f553480156200010457600080fd5b50604051620037473803806200374783398181016040528101906200012a919062000b69565b336000806101000a81548173ffffffffffffffffffffffffffffffffffffffff021916908373ffffffffffffffffffffffffffffffffffffffff16021790555084600260006101000a81548173ffffffffffffffffffffffffffffffffffffffff021916908373ffffffffffffffffffffffffffffffffffffffff16021790555083600160006101000a81548173ffffffffffffffffffffffffffffffffffffffff021916908373ffffffffffffffffffffffffffffffffffffffff160217905550620001ff3360006200040360201b60201c565b620002128560016200040360201b60201c565b620002258460026200040360201b60201c565b620002388360036200040360201b60201c565b6200024b8260036200040360201b60201c565b6200025e8160036200040360201b60201c565b62989680600360008060009054906101000a900473ffffffffffffffffffffffffffffffffffffffff1673ffffffffffffffffffffffffffffffffffffffff1673ffffffffffffffffffffffffffffffffffffffff1681526020019081526020016000206000828254620002d3919062000c20565b9250508190555062989680601260008060009054906101000a900473ffffffffffffffffffffffffffffffffffffffff1673ffffffffffffffffffffffffffffffffffffffff1673ffffffffffffffffffffffffffffffffffffffff16815260200190815260200160002060008282546200034f919062000c20565b925050819055506200038c60008054906101000a900473ffffffffffffffffffffffffffffffffffffffff1684620493e0620004d460201b60201c565b620003c260008054906101000a900473ffffffffffffffffffffffffffffffffffffffff168362061a80620004d460201b60201c565b620003f860008054906101000a900473ffffffffffffffffffffffffffffffffffffffff168262030d40620004d460201b60201c565b505050505062000c96565b6005829080600181540180825580915050600190039060005260206000200160009091909190916101000a81548173ffffffffffffffffffffffffffffffffffffffff021916908373ffffffffffffffffffffffffffffffffffffffff16021790555080600460008473ffffffffffffffffffffffffffffffffffffffff1673ffffffffffffffffffffffffffffffffffffffff16815260200190815260200160002060006101000a81548160ff02191690836003811115620004cb57620004ca6200076f565b5b02179055505050565b80600360008573ffffffffffffffffffffffffffffffffffffffff1673ffffffffffffffffffffffffffffffffffffffff168152602001908152602001600020600082825462000525919062000c5b565b9250508190555080600360008473ffffffffffffffffffffffffffffffffffffffff1673ffffffffffffffffffffffffffffffffffffffff16815260200190815260200160002060008282546200057d919062000c20565b925050819055506200059682826200059b60201b60201c565b505050565b60006002811115620005b257620005b16200076f565b5b600a60019054906101000a900460ff166002811115620005d757620005d66200076f565b5b03620006365780601260008473ffffffffffffffffffffffffffffffffffffffff1673ffffffffffffffffffffffffffffffffffffffff16815260200190815260200160002060008282546200062e919062000c20565b925050819055505b600160028111156200064d576200064c6200076f565b5b600a60019054906101000a900460ff1660028111156200067257620006716200076f565b5b03620006d15780601360008473ffffffffffffffffffffffffffffffffffffffff1673ffffffffffffffffffffffffffffffffffffffff1681526020019081526020016000206000828254620006c9919062000c20565b925050819055505b600280811115620006e757620006e66200076f565b5b600a60019054906101000a900460ff1660028111156200070c576200070b6200076f565b5b036200076b5780601460008473ffffffffffffffffffffffffffffffffffffffff1673ffffffffffffffffffffffffffffffffffffffff168152602001908152602001600020600082825462000763919062000c20565b925050819055505b5050565b7f4e487b7100000000000000000000000000000000000000000000000000000000600052602160045260246000fd5b600081519050919050565b7f4e487b7100000000000000000000000000000000000000000000000000000000600052604160045260246000fd5b7f4e487b7100000000000000000000000000000000000000000000000000000000600052602260045260246000fd5b600060028204905060018216806200082057607f821691505b602082108103620008365762000835620007d8565b5b50919050565b60008190508160005260206000209050919050565b60006020601f8301049050919050565b600082821b905092915050565b600060088302620008a07fffffffffffffffffffffffffffffffffffffffffffffffffffffffffffffffff8262000861565b620008ac868362000861565b95508019841693508086168417925050509392505050565b6000819050919050565b6000819050919050565b6000620008f9620008f3620008ed84620008c4565b620008ce565b620008c4565b9050919050565b6000819050919050565b6200091583620008d8565b6200092d620009248262000900565b8484546200086e565b825550505050565b600090565b6200094462000935565b620009518184846200090a565b505050565b5b8181101562000979576200096d6000826200093a565b60018101905062000957565b5050565b601f821115620009c85762000992816200083c565b6200099d8462000851565b81016020851015620009ad578190505b620009c5620009bc8562000851565b83018262000956565b50505b505050565b600082821c905092915050565b6000620009ed60001984600802620009cd565b1980831691505092915050565b600062000a088383620009da565b9150826002028217905092915050565b62000a23826200079e565b67ffffffffffffffff81111562000a3f5762000a3e620007a9565b5b62000a4b825462000807565b62000a588282856200097d565b600060209050601f83116001811462000a90576000841562000a7b578287015190505b62000a878582620009fa565b86555062000af7565b601f19841662000aa0866200083c565b60005b8281101562000aca5784890151825560018201915060208501945060208101905062000aa3565b8683101562000aea578489015162000ae6601f891682620009da565b8355505b6001600288020188555050505b505050505050565b600080fd5b600073ffffffffffffffffffffffffffffffffffffffff82169050919050565b600062000b318262000b04565b9050919050565b62000b438162000b24565b811462000b4f57600080fd5b50565b60008151905062000b638162000b38565b92915050565b600080600080600060a0868803121562000b885762000b8762000aff565b5b600062000b988882890162000b52565b955050602062000bab8882890162000b52565b945050604062000bbe8882890162000b52565b935050606062000bd18882890162000b52565b925050608062000be48882890162000b52565b9150509295509295909350565b7f4e487b7100000000000000000000000000000000000000000000000000000000600052601160045260246000fd5b600062000c2d82620008c4565b915062000c3a83620008c4565b925082820190508082111562000c555762000c5462000bf1565b5b92915050565b600062000c6882620008c4565b915062000c7583620008c4565b925082820390508181111562000c905762000c8f62000bf1565b5b92915050565b612aa18062000ca66000396000f3fe6080604052600436106101ee5760003560e01c806395d89b411161010d578063bd31fb39116100a0578063de3d27f81161006f578063de3d27f81461072c578063e13b27f414610743578063e762850f1461075a578063efb8206014610797578063fd74d294146107c2576101ee565b8063bd31fb3914610681578063d176bc05146106aa578063d85c7a4e146106d3578063d96a094a14610710576101ee565b8063a2a96799116100dc578063a2a96799146105d9578063a9059cbb14610604578063b2503dcb1461062d578063ba94484514610656576101ee565b806395d89b411461050957806399374642146105345780639b19251a146105715780639e20437c146105ae576101ee565b806344a0d68a11610185578063775ad52711610154578063775ad527146104395780638b1014c4146104765780638da5cb5b146104a15780639424aa69146104cc576101ee565b806344a0d68a1461036b578063557ed1ba1461039457806370a08231146103bf57806374adad1d146103fc576101ee565b806323b872dd116101c157806323b872dd1461029d5780632ee58f2f146102c6578063365b98b2146102f15780633c7fdb3f1461032e576101ee565b8063055ad42e146101f357806306fdde031461021e57806313faede6146102495780631b146ecf14610274575b600080fd5b3480156101ff57600080fd5b506102086107ed565b6040516102159190611cd5565b60405180910390f35b34801561022a57600080fd5b50610233610800565b6040516102409190611d80565b60405180910390f35b34801561025557600080fd5b5061025e61088e565b60405161026b9190611dbb565b60405180910390f35b34801561028057600080fd5b5061029b60048036038101906102969190611f1f565b610894565b005b3480156102a957600080fd5b506102c460048036038101906102bf9190611ff2565b610947565b005b3480156102d257600080fd5b506102db610b76565b6040516102e89190611dbb565b60405180910390f35b3480156102fd57600080fd5b5061031860048036038101906103139190612045565b610b7c565b6040516103259190612081565b60405180910390f35b34801561033a57600080fd5b5061035560048036038101906103509190612045565b610bbb565b6040516103629190612081565b60405180910390f35b34801561037757600080fd5b50610392600480360381019061038d9190612045565b610bfa565b005b3480156103a057600080fd5b506103a9610c94565b6040516103b69190611dbb565b60405180910390f35b3480156103cb57600080fd5b506103e660048036038101906103e1919061209c565b610cae565b6040516103f39190611dbb565b60405180910390f35b34801561040857600080fd5b50610423600480360381019061041e919061209c565b610cc6565b6040516104309190611d80565b60405180910390f35b34801561044557600080fd5b50610460600480360381019061045b91906120c9565b610d66565b60405161046d9190611dbb565b60405180910390f35b34801561048257600080fd5b5061048b610d8b565b6040516104989190612125565b60405180910390f35b3480156104ad57600080fd5b506104b6610d9e565b6040516104c39190612081565b60405180910390f35b3480156104d857600080fd5b506104f360048036038101906104ee919061209c565b610dc2565b6040516105009190611dbb565b60405180910390f35b34801561051557600080fd5b5061051e610dda565b60405161052b9190611d80565b60405180910390f35b34801561054057600080fd5b5061055b6004803603810190610556919061209c565b610e68565b6040516105689190612188565b60405180910390f35b34801561057d57600080fd5b506105986004803603810190610593919061209c565b610e88565b6040516105a591906121be565b60405180910390f35b3480156105ba57600080fd5b506105c3610ea8565b6040516105d09190611dbb565b60405180910390f35b3480156105e557600080fd5b506105ee610eae565b6040516105fb9190611dbb565b60405180910390f35b34801561061057600080fd5b5061062b600480360381019061062691906121d9565b610eb4565b005b34801561063957600080fd5b50610654600480360381019061064f91906121d9565b610f90565b005b34801561066257600080fd5b5061066b611015565b6040516106789190612081565b60405180910390f35b34801561068d57600080fd5b506106a860048036038101906106a39190612245565b61103b565b005b3480156106b657600080fd5b506106d160048036038101906106cc919061229e565b611074565b005b3480156106df57600080fd5b506106fa60048036038101906106f5919061209c565b611353565b6040516107079190611dbb565b60405180910390f35b61072a60048036038101906107259190612045565b61136b565b005b34801561073857600080fd5b5061074161169f565b005b34801561074f57600080fd5b506107586117c5565b005b34801561076657600080fd5b50610781600480360381019061077c919061209c565b6119a6565b60405161078e9190611dbb565b60405180910390f35b3480156107a357600080fd5b506107ac6119be565b6040516107b99190612081565b60405180910390f35b3480156107ce57600080fd5b506107d76119e4565b6040516107e49190611dbb565b60405180910390f35b600a60019054906101000a900460ff1681565b600b805461080d9061230d565b80601f01602080910402602001604051908101604052809291908181526020018280546108399061230d565b80156108865780601f1061085b57610100808354040283529160200191610886565b820191906000526020600020905b81548152906001019060200180831161086957829003601f168201915b505050505081565b600f5481565b80600760003373ffffffffffffffffffffffffffffffffffffffff1673ffffffffffffffffffffffffffffffffffffffff16815260200190815260200160002090816108e091906124ea565b506008339080600181540180825580915050600190039060005260206000200160009091909190916101000a81548173ffffffffffffffffffffffffffffffffffffffff021916908373ffffffffffffffffffffffffffffffffffffffff16021790555050565b828180600360008473ffffffffffffffffffffffffffffffffffffffff1673ffffffffffffffffffffffffffffffffffffffff1681526020019081526020016000205410156109cb576040517f08c379a00000000000000000000000000000000000000000000000000000000081526004016109c290612608565b60405180910390fd5b82806010541015610a11576040517f08c379a0000000000000000000000000000000000000000000000000000000008152600401610a0890612674565b60405180910390fd5b83601160008873ffffffffffffffffffffffffffffffffffffffff1673ffffffffffffffffffffffffffffffffffffffff16815260200190815260200160002060003373ffffffffffffffffffffffffffffffffffffffff1673ffffffffffffffffffffffffffffffffffffffff168152602001908152602001600020541015610ad0576040517f08c379a0000000000000000000000000000000000000000000000000000000008152600401610ac7906126e0565b60405180910390fd5b83601160008873ffffffffffffffffffffffffffffffffffffffff1673ffffffffffffffffffffffffffffffffffffffff16815260200190815260200160002060003373ffffffffffffffffffffffffffffffffffffffff1673ffffffffffffffffffffffffffffffffffffffff1681526020019081526020016000206000828254610b5c919061272f565b92505081905550610b6e8686866119ea565b505050505050565b60105481565b60058181548110610b8c57600080fd5b906000526020600020016000915054906101000a900473ffffffffffffffffffffffffffffffffffffffff1681565b60088181548110610bcb57600080fd5b906000526020600020016000915054906101000a900473ffffffffffffffffffffffffffffffffffffffff1681565b600160009054906101000a900473ffffffffffffffffffffffffffffffffffffffff1673ffffffffffffffffffffffffffffffffffffffff163373ffffffffffffffffffffffffffffffffffffffff1614610c8a576040517f08c379a0000000000000000000000000000000000000000000000000000000008152600401610c81906127af565b60405180910390fd5b80600f8190555050565b6000600a60009054906101000a900460ff1660ff16905090565b60036020528060005260406000206000915090505481565b60076020528060005260406000206000915090508054610ce59061230d565b80601f0160208091040260200160405190810160405280929190818152602001828054610d119061230d565b8015610d5e5780601f10610d3357610100808354040283529160200191610d5e565b820191906000526020600020905b815481529060010190602001808311610d4157829003601f168201915b505050505081565b6011602052816000526040600020602052806000526040600020600091509150505481565b600a60009054906101000a900460ff1681565b60008054906101000a900473ffffffffffffffffffffffffffffffffffffffff1681565b60146020528060005260406000206000915090505481565b600c8054610de79061230d565b80601f0160208091040260200160405190810160405280929190818152602001828054610e139061230d565b8015610e605780601f10610e3557610100808354040283529160200191610e60565b820191906000526020600020905b815481529060010190602001808311610e4357829003601f168201915b505050505081565b60046020528060005260406000206000915054906101000a900460ff1681565b60066020528060005260406000206000915054906101000a900460ff1681565b600e5481565b600d5481565b338180600360008473ffffffffffffffffffffffffffffffffffffffff1673ffffffffffffffffffffffffffffffffffffffff168152602001908152602001600020541015610f38576040517f08c379a0000000000000000000000000000000000000000000000000000000008152600401610f2f90612608565b60405180910390fd5b82806010541015610f7e576040517f08c379a0000000000000000000000000000000000000000000000000000000008152600401610f7590612674565b60405180910390fd5b610f893386866119ea565b5050505050565b80601160003373ffffffffffffffffffffffffffffffffffffffff1673ffffffffffffffffffffffffffffffffffffffff16815260200190815260200160002060008473ffffffffffffffffffffffffffffffffffffffff1673ffffffffffffffffffffffffffffffffffffffff168152602001908152602001600020819055505050565b600260009054906101000a900473ffffffffffffffffffffffffffffffffffffffff1681565b80600a60008282829054906101000a900460ff1661105991906127cf565b92506101000a81548160ff021916908360ff16021790555050565b600260009054906101000a900473ffffffffffffffffffffffffffffffffffffffff1673ffffffffffffffffffffffffffffffffffffffff163373ffffffffffffffffffffffffffffffffffffffff1614611104576040517f08c379a00000000000000000000000000000000000000000000000000000000081526004016110fb90612876565b60405180910390fd5b60405180602001604052806000815250600760008473ffffffffffffffffffffffffffffffffffffffff1673ffffffffffffffffffffffffffffffffffffffff168152602001908152602001600020908161115f91906124ea565b5080600660008473ffffffffffffffffffffffffffffffffffffffff1673ffffffffffffffffffffffffffffffffffffffff16815260200190815260200160002060006101000a81548160ff02191690831515021790555060005b6008805490508160ff16101561134d578273ffffffffffffffffffffffffffffffffffffffff1660088260ff16815481106111f8576111f7612896565b5b9060005260206000200160009054906101000a900473ffffffffffffffffffffffffffffffffffffffff1673ffffffffffffffffffffffffffffffffffffffff160361133a5760086001600880549050611252919061272f565b8154811061126357611262612896565b5b9060005260206000200160009054906101000a900473ffffffffffffffffffffffffffffffffffffffff1660088260ff16815481106112a5576112a4612896565b5b9060005260206000200160006101000a81548173ffffffffffffffffffffffffffffffffffffffff021916908373ffffffffffffffffffffffffffffffffffffffff16021790555060088054806112ff576112fe6128c5565b5b6001900381819060005260206000200160006101000a81549073ffffffffffffffffffffffffffffffffffffffff021916905590555061134f565b8080611345906128f4565b9150506111ba565b505b5050565b60136020528060005260406000206000915090505481565b6000600281111561137f5761137e611c5e565b5b600a60019054906101000a900460ff1660028111156113a1576113a0611c5e565b5b036113e1576040517f08c379a00000000000000000000000000000000000000000000000000000000081526004016113d890612969565b60405180910390fd5b600160028111156113f5576113f4611c5e565b5b600a60019054906101000a900460ff16600281111561141757611416611c5e565b5b036114a957600660003373ffffffffffffffffffffffffffffffffffffffff1673ffffffffffffffffffffffffffffffffffffffff16815260200190815260200160002060009054906101000a900460ff166114a8576040517f08c379a000000000000000000000000000000000000000000000000000000000815260040161149f906129d5565b60405180910390fd5b5b808060105410156114ef576040517f08c379a00000000000000000000000000000000000000000000000000000000081526004016114e690612674565b60405180910390fd5b600a60029054906101000a900473ffffffffffffffffffffffffffffffffffffffff168280600360008473ffffffffffffffffffffffffffffffffffffffff1673ffffffffffffffffffffffffffffffffffffffff168152602001908152602001600020541015611595576040517f08c379a000000000000000000000000000000000000000000000000000000000815260040161158c90612608565b60405180910390fd5b6000600f54856115a591906129f5565b9050600a60029054906101000a900473ffffffffffffffffffffffffffffffffffffffff1673ffffffffffffffffffffffffffffffffffffffff166108fc829081150290604051600060405180830381858888f1935050505015801561160f573d6000803e3d6000fd5b503481101561166b573373ffffffffffffffffffffffffffffffffffffffff166108fc348361163e919061272f565b9081150290604051600060405180830381858888f19350505050158015611669573d6000803e3d6000fd5b505b611698600a60029054906101000a900473ffffffffffffffffffffffffffffffffffffffff1633876119ea565b5050505050565b600060028111156116b3576116b2611c5e565b5b600a60019054906101000a900460ff1660028111156116d5576116d4611c5e565b5b036117c35761172a60008054906101000a900473ffffffffffffffffffffffffffffffffffffffff16600260009054906101000a900473ffffffffffffffffffffffffffffffffffffffff16622dc6c06119ea565b600260009054906101000a900473ffffffffffffffffffffffffffffffffffffffff16600a60026101000a81548173ffffffffffffffffffffffffffffffffffffffff021916908373ffffffffffffffffffffffffffffffffffffffff1602179055506001600a60016101000a81548160ff021916908360028111156117b3576117b2611c5e565b5b0217905550620186a06010819055505b565b600160028111156117d9576117d8611c5e565b5b600a60019054906101000a900460ff1660028111156117fb576117fa611c5e565b5b036119a4576118ae600a60029054906101000a900473ffffffffffffffffffffffffffffffffffffffff1660008054906101000a900473ffffffffffffffffffffffffffffffffffffffff1660036000600a60029054906101000a900473ffffffffffffffffffffffffffffffffffffffff1673ffffffffffffffffffffffffffffffffffffffff1673ffffffffffffffffffffffffffffffffffffffff168152602001908152602001600020546119ea565b600160009054906101000a900473ffffffffffffffffffffffffffffffffffffffff16600a60026101000a81548173ffffffffffffffffffffffffffffffffffffffff021916908373ffffffffffffffffffffffffffffffffffffffff1602179055506002600a60016101000a81548160ff0219169083600281111561193757611936611c5e565b5b021790555061198c60008054906101000a900473ffffffffffffffffffffffffffffffffffffffff16600160009054906101000a900473ffffffffffffffffffffffffffffffffffffffff16625b8d806119ea565b61138860108190555066038d7ea4c68000600f819055505b565b60126020528060005260406000206000915090505481565b600160009054906101000a900473ffffffffffffffffffffffffffffffffffffffff1681565b60095481565b80600360008573ffffffffffffffffffffffffffffffffffffffff1673ffffffffffffffffffffffffffffffffffffffff1681526020019081526020016000206000828254611a39919061272f565b9250508190555080600360008473ffffffffffffffffffffffffffffffffffffffff1673ffffffffffffffffffffffffffffffffffffffff1681526020019081526020016000206000828254611a8f9190612a37565b92505081905550611aa08282611aa5565b505050565b60006002811115611ab957611ab8611c5e565b5b600a60019054906101000a900460ff166002811115611adb57611ada611c5e565b5b03611b375780601260008473ffffffffffffffffffffffffffffffffffffffff1673ffffffffffffffffffffffffffffffffffffffff1681526020019081526020016000206000828254611b2f9190612a37565b925050819055505b60016002811115611b4b57611b4a611c5e565b5b600a60019054906101000a900460ff166002811115611b6d57611b6c611c5e565b5b03611bc95780601360008473ffffffffffffffffffffffffffffffffffffffff1673ffffffffffffffffffffffffffffffffffffffff1681526020019081526020016000206000828254611bc19190612a37565b925050819055505b600280811115611bdc57611bdb611c5e565b5b600a60019054906101000a900460ff166002811115611bfe57611bfd611c5e565b5b03611c5a5780601460008473ffffffffffffffffffffffffffffffffffffffff1673ffffffffffffffffffffffffffffffffffffffff1681526020019081526020016000206000828254611c529190612a37565b925050819055505b5050565b7f4e487b7100000000000000000000000000000000000000000000000000000000600052602160045260246000fd5b60038110611c9e57611c9d611c5e565b5b50565b6000819050611caf82611c8d565b919050565b6000611cbf82611ca1565b9050919050565b611ccf81611cb4565b82525050565b6000602082019050611cea6000830184611cc6565b92915050565b600081519050919050565b600082825260208201905092915050565b60005b83811015611d2a578082015181840152602081019050611d0f565b60008484015250505050565b6000601f19601f8301169050919050565b6000611d5282611cf0565b611d5c8185611cfb565b9350611d6c818560208601611d0c565b611d7581611d36565b840191505092915050565b60006020820190508181036000830152611d9a8184611d47565b905092915050565b6000819050919050565b611db581611da2565b82525050565b6000602082019050611dd06000830184611dac565b92915050565b6000604051905090565b600080fd5b600080fd5b600080fd5b600080fd5b7f4e487b7100000000000000000000000000000000000000000000000000000000600052604160045260246000fd5b611e2c82611d36565b810181811067ffffffffffffffff82111715611e4b57611e4a611df4565b5b80604052505050565b6000611e5e611dd6565b9050611e6a8282611e23565b919050565b600067ffffffffffffffff821115611e8a57611e89611df4565b5b611e9382611d36565b9050602081019050919050565b82818337600083830152505050565b6000611ec2611ebd84611e6f565b611e54565b905082815260208101848484011115611ede57611edd611def565b5b611ee9848285611ea0565b509392505050565b600082601f830112611f0657611f05611dea565b5b8135611f16848260208601611eaf565b91505092915050565b600060208284031215611f3557611f34611de0565b5b600082013567ffffffffffffffff811115611f5357611f52611de5565b5b611f5f84828501611ef1565b91505092915050565b600073ffffffffffffffffffffffffffffffffffffffff82169050919050565b6000611f9382611f68565b9050919050565b611fa381611f88565b8114611fae57600080fd5b50565b600081359050611fc081611f9a565b92915050565b611fcf81611da2565b8114611fda57600080fd5b50565b600081359050611fec81611fc6565b92915050565b60008060006060848603121561200b5761200a611de0565b5b600061201986828701611fb1565b935050602061202a86828701611fb1565b925050604061203b86828701611fdd565b9150509250925092565b60006020828403121561205b5761205a611de0565b5b600061206984828501611fdd565b91505092915050565b61207b81611f88565b82525050565b60006020820190506120966000830184612072565b92915050565b6000602082840312156120b2576120b1611de0565b5b60006120c084828501611fb1565b91505092915050565b600080604083850312156120e0576120df611de0565b5b60006120ee85828601611fb1565b92505060206120ff85828601611fb1565b9150509250929050565b600060ff82169050919050565b61211f81612109565b82525050565b600060208201905061213a6000830184612116565b92915050565b6004811061215157612150611c5e565b5b50565b600081905061216282612140565b919050565b600061217282612154565b9050919050565b61218281612167565b82525050565b600060208201905061219d6000830184612179565b92915050565b60008115159050919050565b6121b8816121a3565b82525050565b60006020820190506121d360008301846121af565b92915050565b600080604083850312156121f0576121ef611de0565b5b60006121fe85828601611fb1565b925050602061220f85828601611fdd565b9150509250929050565b61222281612109565b811461222d57600080fd5b50565b60008135905061223f81612219565b92915050565b60006020828403121561225b5761225a611de0565b5b600061226984828501612230565b91505092915050565b61227b816121a3565b811461228657600080fd5b50565b60008135905061229881612272565b92915050565b600080604083850312156122b5576122b4611de0565b5b60006122c385828601611fb1565b92505060206122d485828601612289565b9150509250929050565b7f4e487b7100000000000000000000000000000000000000000000000000000000600052602260045260246000fd5b6000600282049050600182168061232557607f821691505b602082108103612338576123376122de565b5b50919050565b60008190508160005260206000209050919050565b60006020601f8301049050919050565b600082821b905092915050565b6000600883026123a07fffffffffffffffffffffffffffffffffffffffffffffffffffffffffffffffff82612363565b6123aa8683612363565b95508019841693508086168417925050509392505050565b6000819050919050565b60006123e76123e26123dd84611da2565b6123c2565b611da2565b9050919050565b6000819050919050565b612401836123cc565b61241561240d826123ee565b848454612370565b825550505050565b600090565b61242a61241d565b6124358184846123f8565b505050565b5b818110156124595761244e600082612422565b60018101905061243b565b5050565b601f82111561249e5761246f8161233e565b61247884612353565b81016020851015612487578190505b61249b61249385612353565b83018261243a565b50505b505050565b600082821c905092915050565b60006124c1600019846008026124a3565b1980831691505092915050565b60006124da83836124b0565b9150826002028217905092915050565b6124f382611cf0565b67ffffffffffffffff81111561250c5761250b611df4565b5b612516825461230d565b61252182828561245d565b600060209050601f8311600181146125545760008415612542578287015190505b61254c85826124ce565b8655506125b4565b601f1984166125628661233e565b60005b8281101561258a57848901518255600182019150602085019450602081019050612565565b868310156125a757848901516125a3601f8916826124b0565b8355505b6001600288020188555050505b505050505050565b7f42616c616e636520736d616c6c6572207468656e20616d6f756e740000000000600082015250565b60006125f2601b83611cfb565b91506125fd826125bc565b602082019050919050565b60006020820190508181036000830152612621816125e5565b9050919050565b7f416d6f756e7420626967676572207468656e2070686173654c696d6974000000600082015250565b600061265e601d83611cfb565b915061266982612628565b602082019050919050565b6000602082019050818103600083015261268d81612651565b9050919050565b7f416c6c6f7720736d616c6c6572207468656e20616d6f756e7400000000000000600082015250565b60006126ca601983611cfb565b91506126d582612694565b602082019050919050565b600060208201905081810360008301526126f9816126bd565b9050919050565b7f4e487b7100000000000000000000000000000000000000000000000000000000600052601160045260246000fd5b600061273a82611da2565b915061274583611da2565b925082820390508181111561275d5761275c612700565b5b92915050565b7f596f7520617265206e6f74207075626c69632070726f76696465720000000000600082015250565b6000612799601b83611cfb565b91506127a482612763565b602082019050919050565b600060208201905081810360008301526127c88161278c565b9050919050565b60006127da82612109565b91506127e583612109565b9250828201905060ff8111156127fe576127fd612700565b5b92915050565b7f6f6e6c7920707269766174652070726f76696465722063616e20646f2074686960008201527f73206f7065726174696f6e000000000000000000000000000000000000000000602082015250565b6000612860602b83611cfb565b915061286b82612804565b604082019050919050565b6000602082019050818103600083015261288f81612853565b9050919050565b7f4e487b7100000000000000000000000000000000000000000000000000000000600052603260045260246000fd5b7f4e487b7100000000000000000000000000000000000000000000000000000000600052603160045260246000fd5b60006128ff82612109565b915060ff820361291257612911612700565b5b600182019050919050565b7f507269766174652073656c6c206e6f7420737461727465640000000000000000600082015250565b6000612953601883611cfb565b915061295e8261291d565b602082019050919050565b6000602082019050818103600083015261298281612946565b9050919050565b7f467265652073616c65206e6f7420737461727465640000000000000000000000600082015250565b60006129bf601583611cfb565b91506129ca82612989565b602082019050919050565b600060208201905081810360008301526129ee816129b2565b9050919050565b6000612a0082611da2565b9150612a0b83611da2565b9250828202612a1981611da2565b91508282048414831517612a3057612a2f612700565b5b5092915050565b6000612a4282611da2565b9150612a4d83611da2565b9250828201905080821115612a6557612a64612700565b5b9291505056fea264697066735822122006616a4074e45ff05382b9f7ea1f0017bfca0cc29c5869958e6f75d5459ef24a64736f6c63430008130033",
  "immutableReferences": {},
  "source": "// SPDX-License-Identifier: MIT\npragma solidity >=0.4.22 <0.9.0;\n\ncontract token {\n\n  enum Phase {SEED, PRIVATE, PUBLIC}\n\n  enum Role {OWNER, PRIVATE, PUBLIC, USER}\n\n  address public owner;\n  address public publicProvider;\n  address public privateProvider;\n\n  mapping (address => uint) public balanceOf;\n  mapping (address => Role) public roles;\n  address[] public users;\n\n  mapping (address => bool) public whitelist;\n  mapping (address => string) public requests;\n  address[] public requestsAddresses;\n  \n  uint public timeStart = block.timestamp;\n  uint8 public timeDiff = 0;\n  Phase public currentPhase = Phase.SEED;\n  address currentOwner;\n\n  string public name = \"CryptoMonster\";\n  string public symbol = \"CMON\";\n  uint public totalSuply = 10000000;\n  uint public digits = 12;\n  uint public cost = 1 ether * 75 / 100000;\n  uint public phaseLimit;\n  \n  mapping (address => mapping (address => uint)) public allow;\n\n  mapping (address => uint) public seedTokens;\n  mapping (address => uint) public privateTokens;\n  mapping (address => uint) public publicTokens;\n\n  function _addUser(address addr, Role role) private {\n    users.push(addr);\n    roles[addr] = role;\n  }\n\n  function _transfer(address from, address to, uint amount) private {\n    balanceOf[from] -= amount;\n    balanceOf[to] += amount;\n    _setPhaseHistrory(to, amount);\n  }\n\n  function _setPhaseHistrory(address to, uint amount) private {\n    if (currentPhase == Phase.SEED) {\n      seedTokens[to] +=amount;\n    }\n    if (currentPhase == Phase.PRIVATE) {\n      privateTokens[to] +=amount;\n    }\n    if (currentPhase == Phase.PUBLIC) {\n      publicTokens[to] +=amount;\n    }\n  }\n\n  constructor(address _private, address _public, address _investor1, address _investor2, address _friend) public {\n    owner = msg.sender;\n    privateProvider = _private;\n    publicProvider = _public;\n    _addUser(msg.sender, Role.OWNER);\n    _addUser(_private, Role.PRIVATE);\n    _addUser(_public, Role.PUBLIC);\n    _addUser(_investor1, Role.USER);\n    _addUser(_investor2, Role.USER);\n    _addUser(_friend, Role.USER);\n    balanceOf[owner] += 10000000;\n    seedTokens[owner] += 10000000;\n    _transfer(owner, _investor1, 300000);\n    _transfer(owner, _investor2, 400000);\n    _transfer(owner, _friend, 200000);\n  }\n\n  function transfer(address to, uint amount) public enoughtTokens(msg.sender, amount) checkTokenLimit(amount) {\n    _transfer(msg.sender, to, amount);\n  }\n\n  function transferFrom(address from, address to, uint amount) public enoughtTokens(from, amount) checkTokenLimit(amount) {\n    require(allow[from][msg.sender] >= amount, \"Allow smaller then amount\");\n    allow[from][msg.sender] -= amount;\n    _transfer(from, to, amount);\n  }\n\n  function createRequest(string memory text) public {\n    requests[msg.sender] = text;\n    requestsAddresses.push(msg.sender);\n  }\n\n  function approveRequest(address addr, bool isAccept) public {\n    require(msg.sender == privateProvider,\"only private provider can do this operation\");\n    requests[addr] = \"\";\n    whitelist[addr] = isAccept;\n    for (uint8 i=0; i<requestsAddresses.length; i++) {\n      if (requestsAddresses[i] == addr) {\n        requestsAddresses[i] = requestsAddresses[requestsAddresses.length-1];\n        requestsAddresses.pop();\n        return;\n      }\n    }\n  }\n\n  function buy(uint amount) public payable checkWhiteList() checkTokenLimit(amount) enoughtTokens(currentOwner, amount) {\n    uint sum = amount * cost;\n      payable(currentOwner).transfer(sum);\n      if (sum < msg.value){\n          payable(msg.sender).transfer(sum - msg.value);\n      }\n    _transfer(currentOwner, msg.sender, amount);\n  }\n\n  function setAllow(address to, uint amount) public {\n    allow[msg.sender][to] = amount;\n  }\n\n  function setCost(uint newCost) public {\n    require(msg.sender == publicProvider, \"You are not public provider\");\n    cost = newCost;\n  }\n\n  function setPrivatePhase() public {\n    if (currentPhase == Phase.SEED) {\n      _transfer(owner, privateProvider, 3000000);\n      currentOwner = privateProvider;\n      currentPhase = Phase.PRIVATE;\n      phaseLimit = 100000;\n    }\n  }\n\n  function setPublicPhase() public {\n    if (currentPhase == Phase.PRIVATE) {\n      _transfer(currentOwner, owner, balanceOf[currentOwner]);\n      currentOwner = publicProvider;\n      currentPhase = Phase.PUBLIC;\n      _transfer(owner, publicProvider, 6000000);\n      phaseLimit = 5000;\n      cost = 1 ether / 1000;\n    }\n  }\n\n  function getTime() public view returns(uint) {\n    return timeDiff;\n  }\n\n  function timeTravel(uint8 count) public {\n    timeDiff += count;\n  }\n\n  modifier checkWhiteList() {\n    if (currentPhase == Phase.SEED) {\n      revert(\"Private sell not started\");\n    }\n    if (currentPhase == Phase.PRIVATE) {\n      require(whitelist[msg.sender], \"Free sale not started\");\n    }\n    _;\n  }\n\n  modifier enoughtTokens(address from, uint amount) {\n    require(balanceOf[from] >= amount, \"Balance smaller then amount\");\n    _;\n  } \n\n  modifier checkTokenLimit(uint amount) {\n    require(phaseLimit >= amount, \"Amount bigger then phaseLimit\");\n    _;\n  }\n\n}\n",
  "sourcePath": "/Users/macbookpro/WebstormProjects/wsrprod/eth/backend/contracts/token.sol",
  "compiler": {
    "name": "solc",
    "version": "0.8.19+commit.7dd6d404.Emscripten.clang"
  },
  "schemaVersion": "3.4.12",
  "updatedAt": "2023-04-25T13:46:56.790Z",
  "networkType": "ethereum",
  "devdoc": {
    "kind": "dev",
    "methods": {},
    "version": 1
  },
  "userdoc": {
    "kind": "user",
    "methods": {},
    "version": 1
  }
}