{
  "contractName": "token",
  "abi": [
    {
      "inputs": [
        {
          "internalType": "address",
          "name": "_private",
          "type": "address"
        },
        {
          "internalType": "address",
          "name": "_public",
          "type": "address"
        },
        {
          "internalType": "address",
          "name": "_investor1",
          "type": "address"
        },
        {
          "internalType": "address",
          "name": "_investor2",
          "type": "address"
        },
        {
          "internalType": "address",
          "name": "_friend",
          "type": "address"
        }
      ],
      "stateMutability": "nonpayable",
      "type": "constructor"
    },
    {
      "inputs": [
        {
          "internalType": "address",
          "name": "",
          "type": "address"
        },
        {
          "internalType": "address",
          "name": "",
          "type": "address"
        }
      ],
      "name": "allow",
      "outputs": [
        {
          "internalType": "uint256",
          "name": "",
          "type": "uint256"
        }
      ],
      "stateMutability": "view",
      "type": "function",
      "constant": true
    },
    {
      "inputs": [
        {
          "internalType": "address",
          "name": "",
          "type": "address"
        }
      ],
      "name": "balanceOf",
      "outputs": [
        {
          "internalType": "uint256",
          "name": "",
          "type": "uint256"
        }
      ],
      "stateMutability": "view",
      "type": "function",
      "constant": true
    },
    {
      "inputs": [],
      "name": "cost",
      "outputs": [
        {
          "internalType": "uint256",
          "name": "",
          "type": "uint256"
        }
      ],
      "stateMutability": "view",
      "type": "function",
      "constant": true
    },
    {
      "inputs": [],
      "name": "currentPhase",
      "outputs": [
        {
          "internalType": "enum token.Phase",
          "name": "",
          "type": "uint8"
        }
      ],
      "stateMutability": "view",
      "type": "function",
      "constant": true
    },
    {
      "inputs": [],
      "name": "digits",
      "outputs": [
        {
          "internalType": "uint256",
          "name": "",
          "type": "uint256"
        }
      ],
      "stateMutability": "view",
      "type": "function",
      "constant": true
    },
    {
      "inputs": [],
      "name": "name",
      "outputs": [
        {
          "internalType": "string",
          "name": "",
          "type": "string"
        }
      ],
      "stateMutability": "view",
      "type": "function",
      "constant": true
    },
    {
      "inputs": [],
      "name": "owner",
      "outputs": [
        {
          "internalType": "address",
          "name": "",
          "type": "address"
        }
      ],
      "stateMutability": "view",
      "type": "function",
      "constant": true
    },
    {
      "inputs": [],
      "name": "phaseLimit",
      "outputs": [
        {
          "internalType": "uint256",
          "name": "",
          "type": "uint256"
        }
      ],
      "stateMutability": "view",
      "type": "function",
      "constant": true
    },
    {
      "inputs": [],
      "name": "privateProvider",
      "outputs": [
        {
          "internalType": "address",
          "name": "",
          "type": "address"
        }
      ],
      "stateMutability": "view",
      "type": "function",
      "constant": true
    },
    {
      "inputs": [
        {
          "internalType": "address",
          "name": "",
          "type": "address"
        }
      ],
      "name": "privateTokens",
      "outputs": [
        {
          "internalType": "uint256",
          "name": "",
          "type": "uint256"
        }
      ],
      "stateMutability": "view",
      "type": "function",
      "constant": true
    },
    {
      "inputs": [],
      "name": "publicProvider",
      "outputs": [
        {
          "internalType": "address",
          "name": "",
          "type": "address"
        }
      ],
      "stateMutability": "view",
      "type": "function",
      "constant": true
    },
    {
      "inputs": [
        {
          "internalType": "address",
          "name": "",
          "type": "address"
        }
      ],
      "name": "publicTokens",
      "outputs": [
        {
          "internalType": "uint256",
          "name": "",
          "type": "uint256"
        }
      ],
      "stateMutability": "view",
      "type": "function",
      "constant": true
    },
    {
      "inputs": [
        {
          "internalType": "address",
          "name": "",
          "type": "address"
        }
      ],
      "name": "requests",
      "outputs": [
        {
          "internalType": "string",
          "name": "",
          "type": "string"
        }
      ],
      "stateMutability": "view",
      "type": "function",
      "constant": true
    },
    {
      "inputs": [
        {
          "internalType": "uint256",
          "name": "",
          "type": "uint256"
        }
      ],
      "name": "requestsAddresses",
      "outputs": [
        {
          "internalType": "address",
          "name": "",
          "type": "address"
        }
      ],
      "stateMutability": "view",
      "type": "function",
      "constant": true
    },
    {
      "inputs": [
        {
          "internalType": "address",
          "name": "",
          "type": "address"
        }
      ],
      "name": "roles",
      "outputs": [
        {
          "internalType": "enum token.Role",
          "name": "",
          "type": "uint8"
        }
      ],
      "stateMutability": "view",
      "type": "function",
      "constant": true
    },
    {
      "inputs": [
        {
          "internalType": "address",
          "name": "",
          "type": "address"
        }
      ],
      "name": "seedTokens",
      "outputs": [
        {
          "internalType": "uint256",
          "name": "",
          "type": "uint256"
        }
      ],
      "stateMutability": "view",
      "type": "function",
      "constant": true
    },
    {
      "inputs": [],
      "name": "symbol",
      "outputs": [
        {
          "internalType": "string",
          "name": "",
          "type": "string"
        }
      ],
      "stateMutability": "view",
      "type": "function",
      "constant": true
    },
    {
      "inputs": [],
      "name": "timeDiff",
      "outputs": [
        {
          "internalType": "uint8",
          "name": "",
          "type": "uint8"
        }
      ],
      "stateMutability": "view",
      "type": "function",
      "constant": true
    },
    {
      "inputs": [],
      "name": "timeStart",
      "outputs": [
        {
          "internalType": "uint256",
          "name": "",
          "type": "uint256"
        }
      ],
      "stateMutability": "view",
      "type": "function",
      "constant": true
    },
    {
      "inputs": [],
      "name": "totalSuply",
      "outputs": [
        {
          "internalType": "uint256",
          "name": "",
          "type": "uint256"
        }
      ],
      "stateMutability": "view",
      "type": "function",
      "constant": true
    },
    {
      "inputs": [
        {
          "internalType": "uint256",
          "name": "",
          "type": "uint256"
        }
      ],
      "name": "users",
      "outputs": [
        {
          "internalType": "address",
          "name": "",
          "type": "address"
        }
      ],
      "stateMutability": "view",
      "type": "function",
      "constant": true
    },
    {
      "inputs": [
        {
          "internalType": "address",
          "name": "",
          "type": "address"
        }
      ],
      "name": "whitelist",
      "outputs": [
        {
          "internalType": "bool",
          "name": "",
          "type": "bool"
        }
      ],
      "stateMutability": "view",
      "type": "function",
      "constant": true
    },
    {
      "inputs": [
        {
          "internalType": "address",
          "name": "to",
          "type": "address"
        },
        {
          "internalType": "uint256",
          "name": "amount",
          "type": "uint256"
        }
      ],
      "name": "transfer",
      "outputs": [],
      "stateMutability": "nonpayable",
      "type": "function"
    },
    {
      "inputs": [
        {
          "internalType": "address",
          "name": "from",
          "type": "address"
        },
        {
          "internalType": "address",
          "name": "to",
          "type": "address"
        },
        {
          "internalType": "uint256",
          "name": "amount",
          "type": "uint256"
        }
      ],
      "name": "transferFrom",
      "outputs": [],
      "stateMutability": "nonpayable",
      "type": "function"
    },
    {
      "inputs": [
        {
          "internalType": "string",
          "name": "text",
          "type": "string"
        }
      ],
      "name": "createRequest",
      "outputs": [],
      "stateMutability": "nonpayable",
      "type": "function"
    },
    {
      "inputs": [
        {
          "internalType": "address",
          "name": "addr",
          "type": "address"
        },
        {
          "internalType": "bool",
          "name": "isAccept",
          "type": "bool"
        }
      ],
      "name": "approveRequest",
      "outputs": [],
      "stateMutability": "nonpayable",
      "type": "function"
    },
    {
      "inputs": [
        {
          "internalType": "uint256",
          "name": "amount",
          "type": "uint256"
        }
      ],
      "name": "buy",
      "outputs": [],
      "stateMutability": "payable",
      "type": "function",
      "payable": true
    },
    {
      "inputs": [
        {
          "internalType": "address",
          "name": "to",
          "type": "address"
        },
        {
          "internalType": "uint256",
          "name": "amount",
          "type": "uint256"
        }
      ],
      "name": "setAllow",
      "outputs": [],
      "stateMutability": "nonpayable",
      "type": "function"
    },
    {
      "inputs": [
        {
          "internalType": "uint256",
          "name": "newCost",
          "type": "uint256"
        }
      ],
      "name": "setCost",
      "outputs": [],
      "stateMutability": "nonpayable",
      "type": "function"
    },
    {
      "inputs": [],
      "name": "setPrivatePhase",
      "outputs": [],
      "stateMutability": "nonpayable",
      "type": "function"
    },
    {
      "inputs": [],
      "name": "setPublicPhase",
      "outputs": [],
      "stateMutability": "nonpayable",
      "type": "function"
    },
    {
      "inputs": [],
      "name": "getTime",
      "outputs": [
        {
          "internalType": "uint256",
          "name": "",
          "type": "uint256"
        }
      ],
      "stateMutability": "view",
      "type": "function",
      "constant": true
    },
    {
      "inputs": [],
      "name": "timeTravel",
      "outputs": [],
      "stateMutability": "nonpayable",
      "type": "function"
    }
  ],
  "bytecode": "0x6080604052426009556000600a60006101000a81548160ff021916908360ff1602179055506000600a60016101000a81548160ff021916908360028111156200004d576200004c6200076f565b5b02179055506040518060400160405280600d81526020017f43727970746f4d6f6e7374657200000000000000000000000000000000000000815250600b908162000098919062000a18565b506040518060400160405280600481526020017f434d4f4e00000000000000000000000000000000000000000000000000000000815250600c9081620000df919062000a18565b5062989680600d55600c600e556602aa1efb94e000600f553480156200010457600080fd5b506040516200372c3803806200372c83398181016040528101906200012a919062000b69565b336000806101000a81548173ffffffffffffffffffffffffffffffffffffffff021916908373ffffffffffffffffffffffffffffffffffffffff16021790555084600260006101000a81548173ffffffffffffffffffffffffffffffffffffffff021916908373ffffffffffffffffffffffffffffffffffffffff16021790555083600160006101000a81548173ffffffffffffffffffffffffffffffffffffffff021916908373ffffffffffffffffffffffffffffffffffffffff160217905550620001ff3360006200040360201b60201c565b620002128560016200040360201b60201c565b620002258460026200040360201b60201c565b620002388360036200040360201b60201c565b6200024b8260036200040360201b60201c565b6200025e8160036200040360201b60201c565b62989680600360008060009054906101000a900473ffffffffffffffffffffffffffffffffffffffff1673ffffffffffffffffffffffffffffffffffffffff1673ffffffffffffffffffffffffffffffffffffffff1681526020019081526020016000206000828254620002d3919062000c20565b9250508190555062989680601260008060009054906101000a900473ffffffffffffffffffffffffffffffffffffffff1673ffffffffffffffffffffffffffffffffffffffff1673ffffffffffffffffffffffffffffffffffffffff16815260200190815260200160002060008282546200034f919062000c20565b925050819055506200038c60008054906101000a900473ffffffffffffffffffffffffffffffffffffffff1684620493e0620004d460201b60201c565b620003c260008054906101000a900473ffffffffffffffffffffffffffffffffffffffff168362061a80620004d460201b60201c565b620003f860008054906101000a900473ffffffffffffffffffffffffffffffffffffffff168262030d40620004d460201b60201c565b505050505062000c96565b6005829080600181540180825580915050600190039060005260206000200160009091909190916101000a81548173ffffffffffffffffffffffffffffffffffffffff021916908373ffffffffffffffffffffffffffffffffffffffff16021790555080600460008473ffffffffffffffffffffffffffffffffffffffff1673ffffffffffffffffffffffffffffffffffffffff16815260200190815260200160002060006101000a81548160ff02191690836003811115620004cb57620004ca6200076f565b5b02179055505050565b80600360008573ffffffffffffffffffffffffffffffffffffffff1673ffffffffffffffffffffffffffffffffffffffff168152602001908152602001600020600082825462000525919062000c5b565b9250508190555080600360008473ffffffffffffffffffffffffffffffffffffffff1673ffffffffffffffffffffffffffffffffffffffff16815260200190815260200160002060008282546200057d919062000c20565b925050819055506200059682826200059b60201b60201c565b505050565b60006002811115620005b257620005b16200076f565b5b600a60019054906101000a900460ff166002811115620005d757620005d66200076f565b5b03620006365780601260008473ffffffffffffffffffffffffffffffffffffffff1673ffffffffffffffffffffffffffffffffffffffff16815260200190815260200160002060008282546200062e919062000c20565b925050819055505b600160028111156200064d576200064c6200076f565b5b600a60019054906101000a900460ff1660028111156200067257620006716200076f565b5b03620006d15780601360008473ffffffffffffffffffffffffffffffffffffffff1673ffffffffffffffffffffffffffffffffffffffff1681526020019081526020016000206000828254620006c9919062000c20565b925050819055505b600280811115620006e757620006e66200076f565b5b600a60019054906101000a900460ff1660028111156200070c576200070b6200076f565b5b036200076b5780601460008473ffffffffffffffffffffffffffffffffffffffff1673ffffffffffffffffffffffffffffffffffffffff168152602001908152602001600020600082825462000763919062000c20565b925050819055505b5050565b7f4e487b7100000000000000000000000000000000000000000000000000000000600052602160045260246000fd5b600081519050919050565b7f4e487b7100000000000000000000000000000000000000000000000000000000600052604160045260246000fd5b7f4e487b7100000000000000000000000000000000000000000000000000000000600052602260045260246000fd5b600060028204905060018216806200082057607f821691505b602082108103620008365762000835620007d8565b5b50919050565b60008190508160005260206000209050919050565b60006020601f8301049050919050565b600082821b905092915050565b600060088302620008a07fffffffffffffffffffffffffffffffffffffffffffffffffffffffffffffffff8262000861565b620008ac868362000861565b95508019841693508086168417925050509392505050565b6000819050919050565b6000819050919050565b6000620008f9620008f3620008ed84620008c4565b620008ce565b620008c4565b9050919050565b6000819050919050565b6200091583620008d8565b6200092d620009248262000900565b8484546200086e565b825550505050565b600090565b6200094462000935565b620009518184846200090a565b505050565b5b8181101562000979576200096d6000826200093a565b60018101905062000957565b5050565b601f821115620009c85762000992816200083c565b6200099d8462000851565b81016020851015620009ad578190505b620009c5620009bc8562000851565b83018262000956565b50505b505050565b600082821c905092915050565b6000620009ed60001984600802620009cd565b1980831691505092915050565b600062000a088383620009da565b9150826002028217905092915050565b62000a23826200079e565b67ffffffffffffffff81111562000a3f5762000a3e620007a9565b5b62000a4b825462000807565b62000a588282856200097d565b600060209050601f83116001811462000a90576000841562000a7b578287015190505b62000a878582620009fa565b86555062000af7565b601f19841662000aa0866200083c565b60005b8281101562000aca5784890151825560018201915060208501945060208101905062000aa3565b8683101562000aea578489015162000ae6601f891682620009da565b8355505b6001600288020188555050505b505050505050565b600080fd5b600073ffffffffffffffffffffffffffffffffffffffff82169050919050565b600062000b318262000b04565b9050919050565b62000b438162000b24565b811462000b4f57600080fd5b50565b60008151905062000b638162000b38565b92915050565b600080600080600060a0868803121562000b885762000b8762000aff565b5b600062000b988882890162000b52565b955050602062000bab8882890162000b52565b945050604062000bbe8882890162000b52565b935050606062000bd18882890162000b52565b925050608062000be48882890162000b52565b9150509295509295909350565b7f4e487b7100000000000000000000000000000000000000000000000000000000600052601160045260246000fd5b600062000c2d82620008c4565b915062000c3a83620008c4565b925082820190508082111562000c555762000c5462000bf1565b5b92915050565b600062000c6882620008c4565b915062000c7583620008c4565b925082820390508181111562000c905762000c8f62000bf1565b5b92915050565b612a868062000ca66000396000f3fe6080604052600436106101ee5760003560e01c80639424aa691161010d578063ba944845116100a0578063de3d27f81161006f578063de3d27f81461071a578063e13b27f414610731578063e762850f14610748578063efb8206014610785578063fd74d294146107b0576101ee565b8063ba9448451461066d578063d176bc0514610698578063d85c7a4e146106c1578063d96a094a146106fe576101ee565b80639e20437c116100dc5780639e20437c146105c5578063a2a96799146105f0578063a9059cbb1461061b578063b2503dcb14610644576101ee565b80639424aa69146104e357806395d89b4114610520578063993746421461054b5780639b19251a14610588576101ee565b806344a0d68a1161018557806374adad1d1161015457806374adad1d14610413578063775ad527146104505780638b1014c41461048d5780638da5cb5b146104b8576101ee565b806344a0d68a1461036b5780634be867dd14610394578063557ed1ba146103ab57806370a08231146103d6576101ee565b806323b872dd116101c157806323b872dd1461029d5780632ee58f2f146102c6578063365b98b2146102f15780633c7fdb3f1461032e576101ee565b8063055ad42e146101f357806306fdde031461021e57806313faede6146102495780631b146ecf14610274575b600080fd5b3480156101ff57600080fd5b506102086107db565b6040516102159190611ce8565b60405180910390f35b34801561022a57600080fd5b506102336107ee565b6040516102409190611d93565b60405180910390f35b34801561025557600080fd5b5061025e61087c565b60405161026b9190611dce565b60405180910390f35b34801561028057600080fd5b5061029b60048036038101906102969190611f32565b610882565b005b3480156102a957600080fd5b506102c460048036038101906102bf9190612005565b610935565b005b3480156102d257600080fd5b506102db610b64565b6040516102e89190611dce565b60405180910390f35b3480156102fd57600080fd5b5061031860048036038101906103139190612058565b610b6a565b6040516103259190612094565b60405180910390f35b34801561033a57600080fd5b5061035560048036038101906103509190612058565b610ba9565b6040516103629190612094565b60405180910390f35b34801561037757600080fd5b50610392600480360381019061038d9190612058565b610be8565b005b3480156103a057600080fd5b506103a9610c82565b005b3480156103b757600080fd5b506103c0610cbc565b6040516103cd9190611dce565b60405180910390f35b3480156103e257600080fd5b506103fd60048036038101906103f891906120af565b610cfa565b60405161040a9190611dce565b60405180910390f35b34801561041f57600080fd5b5061043a600480360381019061043591906120af565b610d12565b6040516104479190611d93565b60405180910390f35b34801561045c57600080fd5b50610477600480360381019061047291906120dc565b610db2565b6040516104849190611dce565b60405180910390f35b34801561049957600080fd5b506104a2610dd7565b6040516104af9190612138565b60405180910390f35b3480156104c457600080fd5b506104cd610dea565b6040516104da9190612094565b60405180910390f35b3480156104ef57600080fd5b5061050a600480360381019061050591906120af565b610e0e565b6040516105179190611dce565b60405180910390f35b34801561052c57600080fd5b50610535610e26565b6040516105429190611d93565b60405180910390f35b34801561055757600080fd5b50610572600480360381019061056d91906120af565b610eb4565b60405161057f919061219b565b60405180910390f35b34801561059457600080fd5b506105af60048036038101906105aa91906120af565b610ed4565b6040516105bc91906121d1565b60405180910390f35b3480156105d157600080fd5b506105da610ef4565b6040516105e79190611dce565b60405180910390f35b3480156105fc57600080fd5b50610605610efa565b6040516106129190611dce565b60405180910390f35b34801561062757600080fd5b50610642600480360381019061063d91906121ec565b610f00565b005b34801561065057600080fd5b5061066b600480360381019061066691906121ec565b610fdc565b005b34801561067957600080fd5b50610682611061565b60405161068f9190612094565b60405180910390f35b3480156106a457600080fd5b506106bf60048036038101906106ba9190612258565b611087565b005b3480156106cd57600080fd5b506106e860048036038101906106e391906120af565b611366565b6040516106f59190611dce565b60405180910390f35b61071860048036038101906107139190612058565b61137e565b005b34801561072657600080fd5b5061072f6116b2565b005b34801561073d57600080fd5b506107466117d8565b005b34801561075457600080fd5b5061076f600480360381019061076a91906120af565b6119b9565b60405161077c9190611dce565b60405180910390f35b34801561079157600080fd5b5061079a6119d1565b6040516107a79190612094565b60405180910390f35b3480156107bc57600080fd5b506107c56119f7565b6040516107d29190611dce565b60405180910390f35b600a60019054906101000a900460ff1681565b600b80546107fb906122c7565b80601f0160208091040260200160405190810160405280929190818152602001828054610827906122c7565b80156108745780601f1061084957610100808354040283529160200191610874565b820191906000526020600020905b81548152906001019060200180831161085757829003601f168201915b505050505081565b600f5481565b80600760003373ffffffffffffffffffffffffffffffffffffffff1673ffffffffffffffffffffffffffffffffffffffff16815260200190815260200160002090816108ce91906124a4565b506008339080600181540180825580915050600190039060005260206000200160009091909190916101000a81548173ffffffffffffffffffffffffffffffffffffffff021916908373ffffffffffffffffffffffffffffffffffffffff16021790555050565b828180600360008473ffffffffffffffffffffffffffffffffffffffff1673ffffffffffffffffffffffffffffffffffffffff1681526020019081526020016000205410156109b9576040517f08c379a00000000000000000000000000000000000000000000000000000000081526004016109b0906125c2565b60405180910390fd5b828060105410156109ff576040517f08c379a00000000000000000000000000000000000000000000000000000000081526004016109f69061262e565b60405180910390fd5b83601160008873ffffffffffffffffffffffffffffffffffffffff1673ffffffffffffffffffffffffffffffffffffffff16815260200190815260200160002060003373ffffffffffffffffffffffffffffffffffffffff1673ffffffffffffffffffffffffffffffffffffffff168152602001908152602001600020541015610abe576040517f08c379a0000000000000000000000000000000000000000000000000000000008152600401610ab59061269a565b60405180910390fd5b83601160008873ffffffffffffffffffffffffffffffffffffffff1673ffffffffffffffffffffffffffffffffffffffff16815260200190815260200160002060003373ffffffffffffffffffffffffffffffffffffffff1673ffffffffffffffffffffffffffffffffffffffff1681526020019081526020016000206000828254610b4a91906126e9565b92505081905550610b5c8686866119fd565b505050505050565b60105481565b60058181548110610b7a57600080fd5b906000526020600020016000915054906101000a900473ffffffffffffffffffffffffffffffffffffffff1681565b60088181548110610bb957600080fd5b906000526020600020016000915054906101000a900473ffffffffffffffffffffffffffffffffffffffff1681565b600160009054906101000a900473ffffffffffffffffffffffffffffffffffffffff1673ffffffffffffffffffffffffffffffffffffffff163373ffffffffffffffffffffffffffffffffffffffff1614610c78576040517f08c379a0000000000000000000000000000000000000000000000000000000008152600401610c6f90612769565b60405180910390fd5b80600f8190555050565b600a600081819054906101000a900460ff1680929190610ca190612789565b91906101000a81548160ff021916908360ff16021790555050565b6000600a60009054906101000a900460ff1660ff16603c60095442610ce191906126e9565b610ceb91906127e1565b610cf59190612812565b905090565b60036020528060005260406000206000915090505481565b60076020528060005260406000206000915090508054610d31906122c7565b80601f0160208091040260200160405190810160405280929190818152602001828054610d5d906122c7565b8015610daa5780601f10610d7f57610100808354040283529160200191610daa565b820191906000526020600020905b815481529060010190602001808311610d8d57829003601f168201915b505050505081565b6011602052816000526040600020602052806000526040600020600091509150505481565b600a60009054906101000a900460ff1681565b60008054906101000a900473ffffffffffffffffffffffffffffffffffffffff1681565b60146020528060005260406000206000915090505481565b600c8054610e33906122c7565b80601f0160208091040260200160405190810160405280929190818152602001828054610e5f906122c7565b8015610eac5780601f10610e8157610100808354040283529160200191610eac565b820191906000526020600020905b815481529060010190602001808311610e8f57829003601f168201915b505050505081565b60046020528060005260406000206000915054906101000a900460ff1681565b60066020528060005260406000206000915054906101000a900460ff1681565b600e5481565b600d5481565b338180600360008473ffffffffffffffffffffffffffffffffffffffff1673ffffffffffffffffffffffffffffffffffffffff168152602001908152602001600020541015610f84576040517f08c379a0000000000000000000000000000000000000000000000000000000008152600401610f7b906125c2565b60405180910390fd5b82806010541015610fca576040517f08c379a0000000000000000000000000000000000000000000000000000000008152600401610fc19061262e565b60405180910390fd5b610fd53386866119fd565b5050505050565b80601160003373ffffffffffffffffffffffffffffffffffffffff1673ffffffffffffffffffffffffffffffffffffffff16815260200190815260200160002060008473ffffffffffffffffffffffffffffffffffffffff1673ffffffffffffffffffffffffffffffffffffffff168152602001908152602001600020819055505050565b600260009054906101000a900473ffffffffffffffffffffffffffffffffffffffff1681565b600260009054906101000a900473ffffffffffffffffffffffffffffffffffffffff1673ffffffffffffffffffffffffffffffffffffffff163373ffffffffffffffffffffffffffffffffffffffff1614611117576040517f08c379a000000000000000000000000000000000000000000000000000000000815260040161110e906128b8565b60405180910390fd5b60405180602001604052806000815250600760008473ffffffffffffffffffffffffffffffffffffffff1673ffffffffffffffffffffffffffffffffffffffff168152602001908152602001600020908161117291906124a4565b5080600660008473ffffffffffffffffffffffffffffffffffffffff1673ffffffffffffffffffffffffffffffffffffffff16815260200190815260200160002060006101000a81548160ff02191690831515021790555060005b6008805490508160ff161015611360578273ffffffffffffffffffffffffffffffffffffffff1660088260ff168154811061120b5761120a6128d8565b5b9060005260206000200160009054906101000a900473ffffffffffffffffffffffffffffffffffffffff1673ffffffffffffffffffffffffffffffffffffffff160361134d576008600160088054905061126591906126e9565b81548110611276576112756128d8565b5b9060005260206000200160009054906101000a900473ffffffffffffffffffffffffffffffffffffffff1660088260ff16815481106112b8576112b76128d8565b5b9060005260206000200160006101000a81548173ffffffffffffffffffffffffffffffffffffffff021916908373ffffffffffffffffffffffffffffffffffffffff160217905550600880548061131257611311612907565b5b6001900381819060005260206000200160006101000a81549073ffffffffffffffffffffffffffffffffffffffff0219169055905550611362565b808061135890612789565b9150506111cd565b505b5050565b60136020528060005260406000206000915090505481565b6000600281111561139257611391611c71565b5b600a60019054906101000a900460ff1660028111156113b4576113b3611c71565b5b036113f4576040517f08c379a00000000000000000000000000000000000000000000000000000000081526004016113eb90612982565b60405180910390fd5b6001600281111561140857611407611c71565b5b600a60019054906101000a900460ff16600281111561142a57611429611c71565b5b036114bc57600660003373ffffffffffffffffffffffffffffffffffffffff1673ffffffffffffffffffffffffffffffffffffffff16815260200190815260200160002060009054906101000a900460ff166114bb576040517f08c379a00000000000000000000000000000000000000000000000000000000081526004016114b2906129ee565b60405180910390fd5b5b80806010541015611502576040517f08c379a00000000000000000000000000000000000000000000000000000000081526004016114f99061262e565b60405180910390fd5b600a60029054906101000a900473ffffffffffffffffffffffffffffffffffffffff168280600360008473ffffffffffffffffffffffffffffffffffffffff1673ffffffffffffffffffffffffffffffffffffffff1681526020019081526020016000205410156115a8576040517f08c379a000000000000000000000000000000000000000000000000000000000815260040161159f906125c2565b60405180910390fd5b6000600f54856115b89190612a0e565b9050600a60029054906101000a900473ffffffffffffffffffffffffffffffffffffffff1673ffffffffffffffffffffffffffffffffffffffff166108fc829081150290604051600060405180830381858888f19350505050158015611622573d6000803e3d6000fd5b503481101561167e573373ffffffffffffffffffffffffffffffffffffffff166108fc348361165191906126e9565b9081150290604051600060405180830381858888f1935050505015801561167c573d6000803e3d6000fd5b505b6116ab600a60029054906101000a900473ffffffffffffffffffffffffffffffffffffffff1633876119fd565b5050505050565b600060028111156116c6576116c5611c71565b5b600a60019054906101000a900460ff1660028111156116e8576116e7611c71565b5b036117d65761173d60008054906101000a900473ffffffffffffffffffffffffffffffffffffffff16600260009054906101000a900473ffffffffffffffffffffffffffffffffffffffff16622dc6c06119fd565b600260009054906101000a900473ffffffffffffffffffffffffffffffffffffffff16600a60026101000a81548173ffffffffffffffffffffffffffffffffffffffff021916908373ffffffffffffffffffffffffffffffffffffffff1602179055506001600a60016101000a81548160ff021916908360028111156117c6576117c5611c71565b5b0217905550620186a06010819055505b565b600160028111156117ec576117eb611c71565b5b600a60019054906101000a900460ff16600281111561180e5761180d611c71565b5b036119b7576118c1600a60029054906101000a900473ffffffffffffffffffffffffffffffffffffffff1660008054906101000a900473ffffffffffffffffffffffffffffffffffffffff1660036000600a60029054906101000a900473ffffffffffffffffffffffffffffffffffffffff1673ffffffffffffffffffffffffffffffffffffffff1673ffffffffffffffffffffffffffffffffffffffff168152602001908152602001600020546119fd565b600160009054906101000a900473ffffffffffffffffffffffffffffffffffffffff16600a60026101000a81548173ffffffffffffffffffffffffffffffffffffffff021916908373ffffffffffffffffffffffffffffffffffffffff1602179055506002600a60016101000a81548160ff0219169083600281111561194a57611949611c71565b5b021790555061199f60008054906101000a900473ffffffffffffffffffffffffffffffffffffffff16600160009054906101000a900473ffffffffffffffffffffffffffffffffffffffff16625b8d806119fd565b61138860108190555066038d7ea4c68000600f819055505b565b60126020528060005260406000206000915090505481565b600160009054906101000a900473ffffffffffffffffffffffffffffffffffffffff1681565b60095481565b80600360008573ffffffffffffffffffffffffffffffffffffffff1673ffffffffffffffffffffffffffffffffffffffff1681526020019081526020016000206000828254611a4c91906126e9565b9250508190555080600360008473ffffffffffffffffffffffffffffffffffffffff1673ffffffffffffffffffffffffffffffffffffffff1681526020019081526020016000206000828254611aa29190612812565b92505081905550611ab38282611ab8565b505050565b60006002811115611acc57611acb611c71565b5b600a60019054906101000a900460ff166002811115611aee57611aed611c71565b5b03611b4a5780601260008473ffffffffffffffffffffffffffffffffffffffff1673ffffffffffffffffffffffffffffffffffffffff1681526020019081526020016000206000828254611b429190612812565b925050819055505b60016002811115611b5e57611b5d611c71565b5b600a60019054906101000a900460ff166002811115611b8057611b7f611c71565b5b03611bdc5780601360008473ffffffffffffffffffffffffffffffffffffffff1673ffffffffffffffffffffffffffffffffffffffff1681526020019081526020016000206000828254611bd49190612812565b925050819055505b600280811115611bef57611bee611c71565b5b600a60019054906101000a900460ff166002811115611c1157611c10611c71565b5b03611c6d5780601460008473ffffffffffffffffffffffffffffffffffffffff1673ffffffffffffffffffffffffffffffffffffffff1681526020019081526020016000206000828254611c659190612812565b925050819055505b5050565b7f4e487b7100000000000000000000000000000000000000000000000000000000600052602160045260246000fd5b60038110611cb157611cb0611c71565b5b50565b6000819050611cc282611ca0565b919050565b6000611cd282611cb4565b9050919050565b611ce281611cc7565b82525050565b6000602082019050611cfd6000830184611cd9565b92915050565b600081519050919050565b600082825260208201905092915050565b60005b83811015611d3d578082015181840152602081019050611d22565b60008484015250505050565b6000601f19601f8301169050919050565b6000611d6582611d03565b611d6f8185611d0e565b9350611d7f818560208601611d1f565b611d8881611d49565b840191505092915050565b60006020820190508181036000830152611dad8184611d5a565b905092915050565b6000819050919050565b611dc881611db5565b82525050565b6000602082019050611de36000830184611dbf565b92915050565b6000604051905090565b600080fd5b600080fd5b600080fd5b600080fd5b7f4e487b7100000000000000000000000000000000000000000000000000000000600052604160045260246000fd5b611e3f82611d49565b810181811067ffffffffffffffff82111715611e5e57611e5d611e07565b5b80604052505050565b6000611e71611de9565b9050611e7d8282611e36565b919050565b600067ffffffffffffffff821115611e9d57611e9c611e07565b5b611ea682611d49565b9050602081019050919050565b82818337600083830152505050565b6000611ed5611ed084611e82565b611e67565b905082815260208101848484011115611ef157611ef0611e02565b5b611efc848285611eb3565b509392505050565b600082601f830112611f1957611f18611dfd565b5b8135611f29848260208601611ec2565b91505092915050565b600060208284031215611f4857611f47611df3565b5b600082013567ffffffffffffffff811115611f6657611f65611df8565b5b611f7284828501611f04565b91505092915050565b600073ffffffffffffffffffffffffffffffffffffffff82169050919050565b6000611fa682611f7b565b9050919050565b611fb681611f9b565b8114611fc157600080fd5b50565b600081359050611fd381611fad565b92915050565b611fe281611db5565b8114611fed57600080fd5b50565b600081359050611fff81611fd9565b92915050565b60008060006060848603121561201e5761201d611df3565b5b600061202c86828701611fc4565b935050602061203d86828701611fc4565b925050604061204e86828701611ff0565b9150509250925092565b60006020828403121561206e5761206d611df3565b5b600061207c84828501611ff0565b91505092915050565b61208e81611f9b565b82525050565b60006020820190506120a96000830184612085565b92915050565b6000602082840312156120c5576120c4611df3565b5b60006120d384828501611fc4565b91505092915050565b600080604083850312156120f3576120f2611df3565b5b600061210185828601611fc4565b925050602061211285828601611fc4565b9150509250929050565b600060ff82169050919050565b6121328161211c565b82525050565b600060208201905061214d6000830184612129565b92915050565b6004811061216457612163611c71565b5b50565b600081905061217582612153565b919050565b600061218582612167565b9050919050565b6121958161217a565b82525050565b60006020820190506121b0600083018461218c565b92915050565b60008115159050919050565b6121cb816121b6565b82525050565b60006020820190506121e660008301846121c2565b92915050565b6000806040838503121561220357612202611df3565b5b600061221185828601611fc4565b925050602061222285828601611ff0565b9150509250929050565b612235816121b6565b811461224057600080fd5b50565b6000813590506122528161222c565b92915050565b6000806040838503121561226f5761226e611df3565b5b600061227d85828601611fc4565b925050602061228e85828601612243565b9150509250929050565b7f4e487b7100000000000000000000000000000000000000000000000000000000600052602260045260246000fd5b600060028204905060018216806122df57607f821691505b6020821081036122f2576122f1612298565b5b50919050565b60008190508160005260206000209050919050565b60006020601f8301049050919050565b600082821b905092915050565b60006008830261235a7fffffffffffffffffffffffffffffffffffffffffffffffffffffffffffffffff8261231d565b612364868361231d565b95508019841693508086168417925050509392505050565b6000819050919050565b60006123a161239c61239784611db5565b61237c565b611db5565b9050919050565b6000819050919050565b6123bb83612386565b6123cf6123c7826123a8565b84845461232a565b825550505050565b600090565b6123e46123d7565b6123ef8184846123b2565b505050565b5b81811015612413576124086000826123dc565b6001810190506123f5565b5050565b601f82111561245857612429816122f8565b6124328461230d565b81016020851015612441578190505b61245561244d8561230d565b8301826123f4565b50505b505050565b600082821c905092915050565b600061247b6000198460080261245d565b1980831691505092915050565b6000612494838361246a565b9150826002028217905092915050565b6124ad82611d03565b67ffffffffffffffff8111156124c6576124c5611e07565b5b6124d082546122c7565b6124db828285612417565b600060209050601f83116001811461250e57600084156124fc578287015190505b6125068582612488565b86555061256e565b601f19841661251c866122f8565b60005b828110156125445784890151825560018201915060208501945060208101905061251f565b86831015612561578489015161255d601f89168261246a565b8355505b6001600288020188555050505b505050505050565b7f42616c616e636520736d616c6c6572207468656e20616d6f756e740000000000600082015250565b60006125ac601b83611d0e565b91506125b782612576565b602082019050919050565b600060208201905081810360008301526125db8161259f565b9050919050565b7f416d6f756e7420626967676572207468656e2070686173654c696d6974000000600082015250565b6000612618601d83611d0e565b9150612623826125e2565b602082019050919050565b600060208201905081810360008301526126478161260b565b9050919050565b7f416c6c6f7720736d616c6c6572207468656e20616d6f756e7400000000000000600082015250565b6000612684601983611d0e565b915061268f8261264e565b602082019050919050565b600060208201905081810360008301526126b381612677565b9050919050565b7f4e487b7100000000000000000000000000000000000000000000000000000000600052601160045260246000fd5b60006126f482611db5565b91506126ff83611db5565b9250828203905081811115612717576127166126ba565b5b92915050565b7f596f7520617265206e6f74207075626c69632070726f76696465720000000000600082015250565b6000612753601b83611d0e565b915061275e8261271d565b602082019050919050565b6000602082019050818103600083015261278281612746565b9050919050565b60006127948261211c565b915060ff82036127a7576127a66126ba565b5b600182019050919050565b7f4e487b7100000000000000000000000000000000000000000000000000000000600052601260045260246000fd5b60006127ec82611db5565b91506127f783611db5565b925082612807576128066127b2565b5b828204905092915050565b600061281d82611db5565b915061282883611db5565b92508282019050808211156128405761283f6126ba565b5b92915050565b7f6f6e6c7920707269766174652070726f76696465722063616e20646f2074686960008201527f73206f7065726174696f6e000000000000000000000000000000000000000000602082015250565b60006128a2602b83611d0e565b91506128ad82612846565b604082019050919050565b600060208201905081810360008301526128d181612895565b9050919050565b7f4e487b7100000000000000000000000000000000000000000000000000000000600052603260045260246000fd5b7f4e487b7100000000000000000000000000000000000000000000000000000000600052603160045260246000fd5b7f507269766174652073656c6c206e6f7420737461727465640000000000000000600082015250565b600061296c601883611d0e565b915061297782612936565b602082019050919050565b6000602082019050818103600083015261299b8161295f565b9050919050565b7f467265652073616c65206e6f7420737461727465640000000000000000000000600082015250565b60006129d8601583611d0e565b91506129e3826129a2565b602082019050919050565b60006020820190508181036000830152612a07816129cb565b9050919050565b6000612a1982611db5565b9150612a2483611db5565b9250828202612a3281611db5565b91508282048414831517612a4957612a486126ba565b5b509291505056fea2646970667358221220453481f9909ded2ec2dd104e67001e6a0d0bce1105c334c2f19e74f014d1d23e64736f6c63430008130033",
  "immutableReferences": {},
  "source": "// SPDX-License-Identifier: MIT\npragma solidity >=0.4.22 <0.9.0;\n\ncontract token {\n\n  enum Phase {SEED, PRIVATE, PUBLIC}\n\n  enum Role {OWNER, PRIVATE, PUBLIC, USER}\n\n  address public owner;\n  address public publicProvider;\n  address public privateProvider;\n\n  mapping (address => uint) public balanceOf;\n  mapping (address => Role) public roles;\n  address[] public users;\n\n  mapping (address => bool) public whitelist;\n  mapping (address => string) public requests;\n  address[] public requestsAddresses;\n  \n  uint public timeStart = block.timestamp;\n  uint8 public timeDiff = 0;\n  Phase public currentPhase = Phase.SEED;\n  address currentOwner;\n\n  string public name = \"CryptoMonster\";\n  string public symbol = \"CMON\";\n  uint public totalSuply = 10000000;\n  uint public digits = 12;\n  uint public cost = 1 ether * 75 / 100000;\n  uint public phaseLimit;\n  \n  mapping (address => mapping (address => uint)) public allow;\n\n  mapping (address => uint) public seedTokens;\n  mapping (address => uint) public privateTokens;\n  mapping (address => uint) public publicTokens;\n\n  function _addUser(address addr, Role role) private {\n    users.push(addr);\n    roles[addr] = role;\n  }\n\n  function _transfer(address from, address to, uint amount) private {\n    balanceOf[from] -= amount;\n    balanceOf[to] += amount;\n    _setPhaseHistrory(to, amount);\n  }\n\n  function _setPhaseHistrory(address to, uint amount) private {\n    if (currentPhase == Phase.SEED) {\n      seedTokens[to] +=amount;\n    }\n    if (currentPhase == Phase.PRIVATE) {\n      privateTokens[to] +=amount;\n    }\n    if (currentPhase == Phase.PUBLIC) {\n      publicTokens[to] +=amount;\n    }\n  }\n\n  constructor(address _private, address _public, address _investor1, address _investor2, address _friend) {\n    owner = msg.sender;\n    privateProvider = _private;\n    publicProvider = _public;\n    _addUser(msg.sender, Role.OWNER);\n    _addUser(_private, Role.PRIVATE);\n    _addUser(_public, Role.PUBLIC);\n    _addUser(_investor1, Role.USER);\n    _addUser(_investor2, Role.USER);\n    _addUser(_friend, Role.USER);\n    balanceOf[owner] += 10000000;\n    seedTokens[owner] += 10000000;\n    _transfer(owner, _investor1, 300000);\n    _transfer(owner, _investor2, 400000);\n    _transfer(owner, _friend, 200000);\n  }\n\n  function transfer(address to, uint amount) public enoughtTokens(msg.sender, amount) checkTokenLimit(amount) {\n    _transfer(msg.sender, to, amount);\n  }\n\n  function transferFrom(address from, address to, uint amount) public enoughtTokens(from, amount) checkTokenLimit(amount) {\n    require(allow[from][msg.sender] >= amount, \"Allow smaller then amount\");\n    allow[from][msg.sender] -= amount;\n    _transfer(from, to, amount);\n  }\n\n  function createRequest(string memory text) public {\n    requests[msg.sender] = text;\n    requestsAddresses.push(msg.sender);\n  }\n\n  function approveRequest(address addr, bool isAccept) public {\n    require(msg.sender == privateProvider,\"only private provider can do this operation\");\n    requests[addr] = \"\";\n    whitelist[addr] = isAccept;\n    for (uint8 i=0; i<requestsAddresses.length; i++) {\n      if (requestsAddresses[i] == addr) {\n        requestsAddresses[i] = requestsAddresses[requestsAddresses.length-1];\n        requestsAddresses.pop();\n        return;\n      }\n    }\n  }\n\n  function buy(uint amount) public payable checkWhiteList() checkTokenLimit(amount) enoughtTokens(currentOwner, amount) {\n    uint sum = amount * cost;\n      payable(currentOwner).transfer(sum);\n      if (sum < msg.value){\n          payable(msg.sender).transfer(sum - msg.value);\n      }\n    _transfer(currentOwner, msg.sender, amount);\n  }\n\n  function setAllow(address to, uint amount) public {\n    allow[msg.sender][to] = amount;\n  }\n\n  function setCost(uint newCost) public {\n    require(msg.sender == publicProvider, \"You are not public provider\");\n    cost = newCost;\n  }\n\n  function setPrivatePhase() public {\n    if (currentPhase == Phase.SEED) {\n      _transfer(owner, privateProvider, 3000000);\n      currentOwner = privateProvider;\n      currentPhase = Phase.PRIVATE;\n      phaseLimit = 100000;\n    }\n  }\n\n  function setPublicPhase() public {\n    if (currentPhase == Phase.PRIVATE) {\n      _transfer(currentOwner, owner, balanceOf[currentOwner]);\n      currentOwner = publicProvider;\n      currentPhase = Phase.PUBLIC;\n      _transfer(owner, publicProvider, 6000000);\n      phaseLimit = 5000;\n      cost = 1 ether / 1000;\n    }\n  }\n\n  function getTime() public view returns(uint) {\n    return (block.timestamp - timeStart)/60 +timeDiff;\n  }\n\n  function timeTravel() public {\n    timeDiff++;\n  }\n\n  modifier checkWhiteList() {\n    if (currentPhase == Phase.SEED) {\n      revert(\"Private sell not started\");\n    }\n    if (currentPhase == Phase.PRIVATE) {\n      require(whitelist[msg.sender], \"Free sale not started\");\n    }\n    _;\n  }\n\n  modifier enoughtTokens(address from, uint amount) {\n    require(balanceOf[from] >= amount, \"Balance smaller then amount\");\n    _;\n  } \n\n  modifier checkTokenLimit(uint amount) {\n    require(phaseLimit >= amount, \"Amount bigger then phaseLimit\");\n    _;\n  }\n\n}\n",
  "sourcePath": "/Users/macbookpro/WebstormProjects/wsrprod/eth/backend/contracts/token.sol",
  "compiler": {
    "name": "solc",
    "version": "0.8.19+commit.7dd6d404.Emscripten.clang"
  },
  "schemaVersion": "3.4.12",
  "updatedAt": "2023-04-25T13:54:01.927Z",
  "networkType": "ethereum",
  "devdoc": {
    "kind": "dev",
    "methods": {},
    "version": 1
  },
  "userdoc": {
    "kind": "user",
    "methods": {},
    "version": 1
  }
}